:100000000C9434000C943E000C943E000C943E0082
:100010000C943E000C943E000C943E000C943E0068
:100020000C943E000C943E000C943E000C943E0058
:100030000C943E000C943E000C943E000C943E0048
:100040000C943E000C943E000C943E000C943E0038
:100050000C943E000C943E000C943E000C943E0028
:100060000C943E000C943E0011241FBECFEFD4E050
:10007000DEBFCDBF0E9440000C946B000C940000CA
:1000800085E584B985B92FEF34E39CE021503040F9
:100090009040E1F700C0000015B82FEF31EE94E07A
:1000A000215030409040E1F700C0000085B92FEFAB
:1000B00031EE94E0215030409040E1F700C0000064
:1000C00015B82FEF34E39CE0215030409040E1F729
:0A00D00000C00000D7CFF894FFCF66
:00000001FF
